:020000040800F2
:1000000000200020DD10000841040008430400081F
:1000100000000000000000000000000000000000E0
:10002000000000000000000000000000450400087F
:100030000000000000000000470400084904000818
:100040002D1100082D1100082D1100082D11000898
:100050002D1100082D1100082D1100082D11000888
:100060002D1100082D1100082D1100085104000861
:100070002D1100082D1100082D1100082D11000868
:100080002D1100082D110008000000002D1100089E
:100090002D1100082D1100082D1100082D11000848
:1000A0002D1100082D1100082D1100082D11000838
:1000B0002D110008000000002D11000800000000B4
:1000C00010B5064C2378002B07D1054B002B02D02E
:1000D000044800E000BF0123237010BD1000002081
:1000E0000000000088110008044B10B5002B03D05D
:1000F0000349044800E000BF10BDC04600000000F6
:100100001400002088110008002243088B4274D399
:1001100003098B425FD3030A8B4244D3030B8B4208
:1001200028D3030C8B420DD3FF22090212BA030C11
:100130008B4202D31212090265D0030B8B4219D3F2
:1001400000E0090AC30B8B4201D3CB03C01A524112
:10015000830B8B4201D38B03C01A5241430B8B425A
:1001600001D34B03C01A5241030B8B4201D30B0343
:10017000C01A5241C30A8B4201D3CB02C01A52416A
:10018000830A8B4201D38B02C01A5241430A8B422D
:1001900001D34B02C01A5241030A8B4201D30B0216
:1001A000C01A5241CDD2C3098B4201D3CB01C01A30
:1001B000524183098B4201D38B01C01A524143093A
:1001C0008B4201D34B01C01A524103098B4201D328
:1001D0000B01C01A5241C3088B4201D3CB00C01A95
:1001E000524183088B4201D38B00C01A524143080D
:1001F0008B4201D34B00C01A5241411A00D2014632
:10020000524110467047FFE701B5002000F006F8A4
:1002100002BDC0460029F7D076E770477047C04658
:10022000F0B589B01A4B5A69802189020A435A6194
:100230005A690A400192019A5A698021C9020A4307
:100240005A615B690B400293029B1422002103A8B0
:1002500000F06DFF022503950495012407940D4FCE
:1002600003A9380000F03EFA039400260496059591
:10027000902003A9C00500F035FA03940495059673
:100280000696079403A9380000F02CFA09B0F0BDD7
:10029000001002400004004872B6FEE700B58FB0BF
:1002A000102200210AA800F042FF0822002108A81D
:1002B00000F03DFF1C22002101A800F038FF21487A
:1002C000214B0360002343608360204AC2600361C6
:1002D0008033836100F012FC002828D180235B0169
:1002E0000A9318480AA900F027FD002821D11548D3
:1002F00000F030FC00281ED1002308930993114818
:1003000008A900F029FE002817D1602301930023DB
:100310000293039305930B48082201A900F088FC7F
:1003200000280CD1074800F0ABFE0FB000BDFFF76E
:10033000B3FFFFF7B1FFFFF7AFFFFFF7ADFFFFF729
:10034000ABFFC0467400002000040040FF03000023
:1003500010B51A4A136801218B431360174B1B68B1
:10036000DB07FBD4164A136801210B431360144BBF
:100370001B689B07FBD5124B1A68F8218A43783912
:100380000A431A605A6870318A435A605A680D49A4
:100390000A405A605A6803218A435A60084B5B68D6
:1003A0000C221A42FAD1084800F092FE032000F015
:1003B00059F8002800D110BDFFF76EFF0020024061
:1003C00000100240FFF8FFFF00127A0010B500F0A5
:1003D00071F8FFF7BDFFFFF723FFFFF75FFF13483B
:1003E000082100F03BFD0EE00133114A1360114A71
:1003F000934205D90E4B104A1A60104BFF221A7017
:10040000012000F079F8094B1A68094B1B68D36387
:100410000A4A127852B2012AE6D0013B044A13601C
:10042000002BEDD1054B01221A70E9E77400002082
:100430002C000020FE030000FF030000000000204D
:10044000FEE7FEE77047704710B500F043F810BDB7
:1004500010B5024800F0F0F810BDC0463000002092
:100460007047000010B504000F4B1978FA20800087
:10047000FFF74AFE01000D4B1868FFF745FE00F03C
:100480009DF800280DD1032C01D901200AE001308C
:1004900000222100404200F08DF8054B1C60002036
:1004A00000E0012010BDC04608000020040000202C
:1004B0000C00002010B5064A136810210B4313608E
:1004C0000320FFF7CFFF00F07DFD002010BDC046E8
:1004D00000200240034A1168034B1B785B1813602D
:1004E0007047C046BC00002008000020014B18687F
:1004F0007047C046BC00002070B50400FFF7F6FF4F
:100500000500631C02D0044B1B78E418FFF7EEFFD4
:10051000401BA042FAD370BD0800002070B500282F
:1005200011DB8308134DC0339B005C59032210403C
:10053000C000FC3216008640B44389010A40824064
:1005400022435A5170BD0F230340083B9B080633DA
:100550009B00094A944663445C6803221040C00033
:10056000FC3215008540AC4389010A408240224399
:100570005A60E7E700E100E000ED00E00138802389
:100580005B0498420FD2094A50600948036A1B0273
:100590001B0AC02109060B43036200239360073343
:1005A0001360002070470120FCE7C04610E000E027
:1005B00000ED00E010B5FFF7B1FF10BD10B5FFF77B
:1005C000DDFF10BD10B504000068054B9C4660447B
:1005D0001421FFF799FD80002064024BE36310BDF6
:1005E000F8FFFDBF0000024070B5041E20D0212599
:1005F0000223435501680A680E4B1A40436880681D
:100600000343E06803432069034360690343A0692F
:100610000343E069034313430B602000FFF7D2FF5D
:100620000023A363012262551F32A354002070BD32
:100630000120FCE70FC0FFFF70B5C36B1A680468A8
:100640002568016C04238B401A4212D06B0710D529
:1006500023689B0603D42368042293432360016C20
:10066000C26B04238B405360C36A002B00D09847B1
:1006700070BD02238B401A4218D0AB0716D52368F1
:100680009B0606D423680A22934323602123093A58
:10069000C254016CC26B02238B40536020230022A2
:1006A000C254836A002BE3D09847E1E708238B40CC
:1006B0001A42DDD02D07DBD523680E229343236039
:1006C000016CC26B01231C008C40546083632122A7
:1006D00083541F330022C254036B002BC8D09847A9
:1006E000C6E70000F0B583B0002356E086685F00DF
:1006F0000324BC40A643CC68BC40344384604468B7
:1007000094434E683609012232409A4022434260A7
:1007100053E0DE080836B600375805321A4092001A
:100720000F249440A7430C69944022003A4332506E
:1007300056E0032600E00026A64034003C43023287
:100740009200444E9451444A9768EA433E00AE43B7
:100750004C68E40201D53E002E433F4CA660E7689A
:100760003E0016404C68A40201D53E002E433A4C90
:10077000E66067683E0016404C68A40301D53E0061
:100780002E43354C6660266832404C68E40301D540
:100790002A003243304C226001330C682200DA40D8
:1007A00056D001229A40250015401442F4D04E68DC
:1007B00003243440013C012C98D94C680322224088
:1007C000032A08D0C4685E000322B24094438A68BA
:1007D000B2402243C2604C6803222240022A98D0D1
:1007E00004685E0003221700B740BC434F683A40DC
:1007F000B240224302604C68C02292021442CBD025
:10080000164CA66901221643A661A46922400192F2
:10081000019A9A08941CA4000E4EA75903241C4068
:10082000A4000F26A640B7439026F605B04282D01A
:100830000B4EB04208D00B4EB04207D00A4EB04229
:1008400000D176E7052677E7012675E7022673E7EC
:1008500003B0F0BD00000140000401400010024060
:100860000004004800080048000C004830B5036A46
:10087000012293430362056A426883697324A34398
:100880000C681C4302239D438B682B43154DA842E3
:1008900008D0154DA84205D0144DA84202D0144DE1
:1008A000A84206D10825AB431D00CB682B43042585
:1008B000AB430C4DA84208D00B4DA84205D00B4DC0
:1008C000A84202D00A4DA84205D10A4D2A404D69DE
:1008D00015438A692A43426084614A68426303621D
:1008E00030BDC046002C01400040014000440140A2
:1008F00000480140FFFCFFFF30B5036A184A13406F
:100900000362046A4268C3697325AB430D681D43E3
:10091000144B1C408B681B022343134CA04209D08C
:10092000124CA0420DD0124CA0420AD0114CA04251
:100930000FD106E0104C1C40CB681B0223430F4C28
:1009400023400F4C22404C69240114438A69120150
:1009500022434260C5614A68C263036230BDC0463B
:10096000FFFEFFFFFFFDFFFF002C014000400140A4
:100970000044014000480140FFF7FFFFFFFBFFFF7D
:10098000FFCFFFFF30B5036A134A13400362046AC6
:100990004368C269114D2A400D682D021543104A63
:1009A00014408A68120322430E4CA04208D00E4C19
:1009B000A04205D00D4CA04202D00D4CA04204D163
:1009C0000C4C1C404B699B0123434360C5614B6841
:1009D0000364026230BDC046FFEFFFFFFF8CFFFFE4
:1009E000FFDFFFFF002C01400040014000440140B8
:1009F00000480140FFBFFFFF30B5036A046A0125CC
:100A0000AC4304628469EF35AC43120122430A24EB
:100A1000A3430B438261036230BD000030B5036A1B
:100A20001024A34303628469036A054D2C4012031A
:100A30002243A024A343090119438261016230BD0E
:100A4000FF0FFFFF8368702293430B43693A134300
:100A500083607047704700000368214A904206D0C7
:100A60008022D205904202D01E4A904203D17022C9
:100A700093434A6813431A4A904212D08022D20507
:100A800090420ED0174A90420BD0174A904208D09D
:100A9000164A904205D0164A904202D0154A90421A
:100AA00003D1154A1A40CB681343802293434A6905
:100AB000134303608B68C3620B688362084B9842E0
:100AC00008D00A4B984205D0094B984202D0094BF6
:100AD000984201D10B690363012343617047C0460B
:100AE000002C014000040040002000400040014074
:100AF0000044014000480140FFFCFFFF70B5041EA8
:100B000026D03D23C35C002B1CD03D25022363551A
:100B1000210001C9FFF7A0FF01234622A354083A90
:100B2000A3540132A3540132A3540132A35401321D
:100B3000A3540132A3540132A3540132A354635588
:100B4000002070BD3C330022C25400F053FADCE7B1
:100B50000120F6E770B5041E26D03D23C35C002BB0
:100B60001CD03D2502236355210001C9FFF774FF06
:100B700001234622A354083AA3540132A35401325C
:100B8000A3540132A3540132A3540132A3540132BD
:100B9000A3540132A3546355002070BD3C3300229E
:100BA000C254FFF757FFDCE70120F6E770B5036A90
:100BB000102293430362026A44688369164D2B40F6
:100BC0000D682D021D4320239A438B681B0113439C
:100BD000124A904209D0124A90420ED0114A9042D5
:100BE0000BD0114A904210D107E0802293431E009F
:100BF000CB681B013343403A93430C4A14404A6983
:100C0000920022438C69A4001443446085614A68C1
:100C10008263036270BDC046FF8CFFFF002C014061
:100C2000004001400044014000480140FFF3FFFF45
:100C300070B504000D003C23C35C012B00D16AE0B9
:100C40003C230121C154082A50D01CD8002A38D096
:100C5000042A16D100682900FFF7A8FF22689169CD
:100C600080231B010B439361226893692B490B403E
:100C7000936121688B692A69120213438B610020FA
:100C80001BE0080019E00C2A16D100682900FFF7C4
:100C900079FE2268D16980231B010B43D36122684E
:100CA000D3691E490B40D3612168CB692A691202BE
:100CB0001343CB61002000E001203C230022E254DA
:100CC00070BD00682900FFF7D1FD226893690821F3
:100CD0000B4393612268936904398B4393612268C3
:100CE000936929690B4393610020E6E700682900B6
:100CF000FFF702FE2268D36908210B43D361226803
:100D0000D36904398B43D3612268D36929690B43C2
:100D1000D3610020D1E70220D2E7C046FFFBFFFFEE
:100D200030B58468034D2C401B0213430B4323430F
:100D3000836030BDFF00FFFF10B5040008003C23B6
:100D4000E35C012B00D177E03C230122E254013324
:100D50000132E2542268936838490B40936001687D
:100D600060294FD029D8402957D00CD9502922D1F9
:100D70004168C2682068FFF73FFE20685021FFF7F6
:100D800061FE002005E020290ED009D930290BD0C2
:100D900001203D230122E254013B0022E25410BD18
:100DA000002901D0102904D12068FFF74BFE002054
:100DB000EFE70120EDE70120EBE7802252019142AD
:100DC00036D08022920191420DD181684268C36879
:100DD0002068FFF7A5FF226891688023DB010B43A1
:100DE00093600020D5E7702924D181684268C368E8
:100DF0002068FFF795FF2268936877210B43936083
:100E00000020C6E74168C2682068FFF707FE206837
:100E10006021FFF717FE0020BBE74168C268206829
:100E2000FFF7EAFD20684021FFF70CFE0020B0E745
:100E30000020AEE70120ACE70220B0E78800FFFF0A
:100E400010B51F23194001248C40036AA343036299
:100E5000036A8A401343036210BD000010B504000A
:100E6000002936D13E23C35C013B5A1E9341DBB2BD
:100E7000002B62D1002945D13E330222E254206882
:100E80000122FFF7DDFF23682E4A934208D02E4A45
:100E9000934205D02D4A934202D02D4A934204D169
:100EA000596C802212020A435A642368254A9342ED
:100EB00038D08022D205934234D0264A934231D092
:100EC000214A93422ED01A6801210A431A60002059
:100ED00034E0042908D008290DD04123C35C013B2C
:100EE0005A1E9341DBB2C3E73F23C35C013B5A1E4A
:100EF0009341DBB2BCE74023C35C013B5A1E9341E4
:100F0000DBB2B5E7042905D0082907D04123022226
:100F1000E254B4E73F230222E254B0E74023022226
:100F2000E254ACE7996807220A40062A07D01A68FB
:100F300001210A431A60002000E0012010BD0020BA
:100F4000FCE7C046002C0140004001400044014045
:100F5000004801400004004030B53C23C35C012B35
:100F600028D03C230122C25401330132C254036809
:100F70005C689D686E3294430A6822435A60036835
:100F80000D4A934209D08022D205934205D00B4AE4
:100F9000934202D00A4A934204D1802295434A6880
:100FA0002A439A603D230122C254013B0022C254CD
:100FB000002030BD0220FCE7002C0140000400406E
:100FC0000040014082B00A4B9969012211439961A6
:100FD00099690A400092009ADA69802149050A431A
:100FE000DA61DB690B400193019B02B07047C04698
:100FF0000010024010B582B0040003688022D205C0
:10100000934204D01A4A934227D002B010BD194A25
:10101000D16901231943D161D26913400093009B28
:101020001548164B03601023436000238360802221
:10103000C2608132FF3202618022120142612022AD
:101040008261C361FFF7D0FA002803D10A4B6362C3
:101050005C62DAE7FFF720F9F8E7064AD169022374
:101060001943D161D26913400193019BCDE7C0467A
:1010700000040040001002403000002058000240F0
:1010800010B586B004001422002101A800F04FF82A
:1010900022680C4B9A4201D006B010BD0A4B5A6927
:1010A0008021C9020A435A615B690B400093009B8F
:1010B0000123019302220292059301A90348FFF73D
:1010C00011FBE9E700040040001002400004004862
:1010D000014B18607047C046040000200D4885464B
:1010E000FFF7BEF90C480D490D4A002302E0D45821
:1010F000C4500433C4188C42F9D30A4A0A4C002362
:1011000001E013600432A242FBD300F019F8FFF7AC
:101110005DF9FEE700200020000000201000002004
:10112000A811000810000020C0000020FEE7030006
:101130008218934200D1704719700133F9E700001B
:1011400070B500260C4C0D4D641BA410A64209D1AD
:10115000002600F019F80A4C0A4D641BA410A642A0
:1011600005D170BDB300EB5898470136EEE7B300E8
:10117000EB5898470136F2E7A0110008A0110008CB
:10118000A4110008A0110008F8B5C046F8BC08BCBE
:101190009E467047F8B5C046F8BC08BC9E467047EE
:0411A000E90000085A
:0411A400C10000087E
:1011A8000100000000127A000100000004000000A5
:04000005080010DD02
:00000001FF
